:100000000C946B000C947D000C947D000C947D008E
:100010000C947D000C947D000C947D000C947D006C
:100020000C947D000C947D000C947D000C947D005C
:100030000C947D000C947D000C947D000C947D004C
:100040000C947D000C947D000C947D000C947D003C
:100050000C947D0007634236B79BD8A71A396856BF
:1000600018AEBAAB558C1D3CB7CC5763BD6DEDFDDA
:10007000753EF6177231BF000000803F0800000097
:10008000BE922449123EABAAAA2ABECDCCCC4C3E8D
:1000900000000080BEABAAAAAA3E00000000BF007C
:1000A0000000803F0000000000084178D3BB438778
:1000B000D1133D190E3CC3BD4282AD2B3E68EC828C
:1000C00076BED98FE1A93E4C80EFFFBE01C4FF7F11
:1000D0003F000000000011241FBECFE5D4E0DEBFCA
:1000E000CDBF10E0A0E6B0E001C01D92A43AB10778
:1000F000E1F70E942E010C94B9050C9400002FEF3B
:100100002ABB8130910581F4D99A86E08A95F1F76E
:1001100000C0DA9893E09A95F1F70000DA9A83E04C
:100120008A95F1F700000895009769F4DA9891E252
:100130009A95F1F70000DA9A87EA91E60197F1F7CC
:1001400000C00000DA9808950F931F93CF93DF93B8
:100150000097A1F020E030E060E670E0AC01417073
:100160005070F901EE0FFF1FE60FF71F5183408318
:10017000969587952F5F3F4F009781F7C0E0D0E0BD
:1001800000E610E0FE01EE0FFF1FE00FF11F80817F
:1001900091810E947F002196CE30D10599F781E0B0
:1001A00090E00E947F00DF91CF911F910F91089501
:1001B0000F931F93CF93DF930097A1F020E030E0DF
:1001C000ACE7B0E0AC0141705070F901EE0FFF1FD9
:1001D000EA0FFB1F51834083969587952F5F3F4F12
:1001E000009781F761157105A1F080E090E040E98A
:1001F00050E09B0121703070FC01EE0FFF1FE40FF7
:10020000F51F3183208376956795019661157105F9
:1002100081F7C0E0D0E00CE710E0FE01EE0FFF1F19
:10022000E00FF11F808191810E947F002196CA30EA
:10023000D10599F780E090E00E947F00DF91CF9197
:100240001F910F9108958FEF8ABBDB9A87EA91E6A1
:100250000197F1F700C00000DB98089587EA91E666
:100260000197F1F700C0000080E092E00E94A40036
:100270000E94230184EC91E060E070E00E94D800CD
:100280000E942301EBCF909A8FE081BB80B39098BE
:10029000909A90B3909892959F70807F892B089543
:1002A00092B39F70282F207F292B22BB909A909881
:1002B0008295807F982B92BB909A909808950F9387
:1002C0001F93DF93CF930F92CDB7DEB78E010F5FF1
:1002D0001F4F9298919A0E9443018983F80180816F
:1002E0008823BCF391988FEF81BB0F90CF91DF9162
:1002F0001F910F9108958FEF81BB81BB92989198C8
:100300009098909A959A90980E945F0188E20E9436
:1003100050010E945F018EE00E9450010E945F0127
:1003200086E00E9450010E945F010895929A0E9407
:1003300050010E945F010895929883E00E9450014D
:100340000E945F010895929881E00E9450010E94EE
:100350005F01089592988295880F880F807C860FA0
:10036000815C0E9450010E945F010895BC010097CA
:1003700071F020E030E0EAE0F0E0CB01BF010E9444
:1003800092052F5F3F4F61157105B9F702C020E05C
:1003900030E0822F932F0895AF92BF92CF92DF92D9
:1003A000EF92FF920F931F93CF93DF93E82EF92ED6
:1003B0000E94B6016C01BC0161507040882777FD36
:1003C0008095982F0E9471029B01AC0160E070E063
:1003D00080E291E40E94D5021C141D0404F50E94E1
:1003E0003E02EB0100E010E00F2EFAE0AF2EBB243E
:1003F000F02D8E2D9F2DBE010E949205262FE82EF6
:10040000F92ECE01B5010E94A605EB01822F805D79
:100410000E9496010F5F1F4F0C151D0554F3DF91CD
:10042000CF911F910F91FF90EF90DF90CF90BF90F1
:10043000AF900895EF92FF920F931F93CF93DF93A6
:100440007B016115710599F0082F192FC0E0D0E0EC
:10045000F80181918F01882319F00E94960103C051
:1004600080E00E9496012196CE15DF0588F3DF918A
:10047000CF911F910F91FF90EF90089504D0689451
:10048000B1118DC0089570D088F09F5790F0B92FAA
:100490009927B751A0F0D1F0660F771F881F991FD9
:1004A0001AF0BA95C9F712C0B13081F077D0B1E037
:1004B000089574C0672F782F8827B85F39F0B93F47
:1004C000CCF3869577956795B395D9F73EF49095DB
:1004D0008095709561957F4F8F4F9F4F0895E89459
:1004E00009C097FB3EF490958095709561957F4F7C
:1004F0008F4F9F4F9923A9F0F92F96E9BB2793952A
:10050000F695879577956795B795F111F8CFFAF439
:10051000BB0F11F460FF1BC06F5F7F4F8F4F9F4F6A
:1005200016C0882311F096E911C0772321F09EE8C8
:10053000872F762F05C0662371F096E8862F70E02E
:1005400060E02AF09A95660F771F881FDAF7880F08
:100550009695879597F9089557FD9058440F551F24
:1005600059F05F3F71F04795880F97FB991F61F035
:100570009F3F79F087950895121613061406551FAC
:10058000F2CF4695F1DF08C0161617061806991F18
:10059000F1CF86957105610508940895E894BB270D
:1005A00066277727CB0197F90895FA01EE0FFF1F11
:1005B00030962105310599F16115710561F4803896
:1005C000BFE39B0749F168949038810561F080385A
:1005D000BFEF9B0741F0992342F5FF3FE10531054D
:1005E000210511F1E8940894E795D901AA2329F48B
:1005F000AB2FBE2FF85FD0F310C0FF5F70F4A6954D
:10060000E0F7F73950F019F0FF3A38F49F779F93ED
:100610000CD00F9007FC905808953EF049C060E060
:1006200070E080E89FE308954FE79F775F934F93D3
:100630003F932F93A7D02F913F914F915F9115D169
:1006400005C019F40EF02EC0A9CF32C08DDFC8F35B
:100650009638C0F707F80F92E8942BE33AEA48EB94
:100660005FE711D10F920F920F924DB75EB70F92C5
:10067000C9D0E4E5F0E01FD04F915F91EF91FF9179
:10068000E595EE1FFF1F49F0FE57E0684427EE0F87
:10069000441FFA95E1F74195550B3BD00F9007FEAB
:1006A0002FC0089597F99F6780E870E060E0089593
:1006B0009FEF80EC0895DF93CF931F930F93FF92EA
:1006C000EF92DF927B018C01689405C0DA2EEF0176
:1006D000D8D0FE01E894A591259135914591559189
:1006E000AEF3EF0137D1FE019701A801DA9479F753
:1006F000DF90EF90FF900F911F91CF91DF910895C0
:100700009B01AC0160E070E080E89FE376C1CACF56
:10071000DCC12ADFE8F39923D9F3940F511DBBF311
:100720009150504094F059F0882332F0660F771FB3
:10073000881F91505040C1F79E3F510544F7880FE4
:10074000911D9695879597F908955F3FACF0983E77
:100750009CF0BB27869577956795B79508F4B160AF
:100760009395C1F7BB0F58F711F460FFE8CF6F5FA7
:100770007F4F8F4F9F4FE3CF12CF0EF0A6C198CF80
:10078000689490CFF1DEC8F39923D1F3C6F3DF93D9
:10079000CF931F930F93FF92C92FDD2788232AF051
:1007A0002197660F771F881FDAF720E030E040E8D6
:1007B0005FEB9FE3883920F0803E30F021968F7701
:1007C000B8D0ECE7F0E003C0B4D0E9EAF0E073DFC2
:1007D0008B01BE01EC01FB2E6F5771097595771FD8
:1007E000880B990B7EDE28E132E741E35FE349D0D5
:1007F000AF2D9801AE01FF900F911F91CF91DF9126
:10080000A9D07FC1FA01DC01AA0FBB1F9B01AC017B
:10081000BF5728F422273327442750781FC0B751E9
:1008200088F4AB2F0024469537952795011CA39596
:10083000D2F3002069F0220F331F441FB395DAF37F
:100840000DD076C061307105A0E88A07B94630F452
:100850009B01AC016627772788279078309621F096
:10086000208331834283538308950BD04AC13BD107
:1008700028F040D118F0952309F014CF19CF112496
:100880008ECE6ADEA0F3959FD1F3950F50E0551FF1
:10089000629FF001729FBB27F00DB11D639FAA27D5
:1008A000F00DB11DAA1F649F6627B00DA11D661F24
:1008B000829F2227B00DA11D621F739FB00DA11D45
:1008C000621F839FA00D611D221F749F3327A00DFF
:1008D000611D231F849F600D211D822F762F6A2F9B
:1008E00011249F5750408AF0E1F088234AF0EE0F20
:1008F000FF1FBB1F661F771F881F91505040A9F72D
:100900009E3F510570F0CECE4ACE5F3FECF3983E4D
:10091000DCF3869577956795B795F795E7959F5F93
:10092000C1F7FE2B880F911D9695879597F908952D
:100930005058BB27AA270ED0E4C0D5D030F0DAD06B
:1009400020F031F49F3F11F41EF4B2CE0EF4E09586
:10095000E7FBA8CEE92F00DE80F3BA176207730722
:100960008407950718F071F49EF518CE0EF4E09503
:100970000B2EBA2FA02D0B01B90190010C01CA0159
:10098000A0011124FF27591B99F0593F50F4503E04
:1009900068F11A16F040A22F232F342F4427585FF6
:1009A000F3CF469537952795A795F0405395C9F70E
:1009B0007EF41F16BA0B620B730B840BBAF09150C6
:1009C000A1F0FF0FBB1F661F771F881FC2F70EC065
:1009D000BA0F621F731F841F48F487957795679538
:1009E000B795F7959E3F08F0B3CF9395880F08F021
:1009F0009927EE0F9795879508950CD082C07AD0ED
:100A000040F071D030F021F45F3F19F04BCE51111E
:100A1000C6CD4ECEA1DD98F39923C9F35523B1F38A
:100A2000951B550BBB27AA2762177307840738F05D
:100A30009F5F5F4F220F331F441FAA1FA9F333D0BC
:100A40000E2E3AF0E0E830D091505040E695001C70
:100A5000CAF729D0FE2F27D0660F771F881FBB1F2C
:100A6000261737074807AB07B0E809F0BB0B802D06
:100A7000BF01FF2793585F4F2AF09E3F510568F052
:100A800011CE8DCD5F3FECF3983EDCF386957795E4
:100A90006795B795F7959F5FC9F7880F911D969554
:100AA000879597F90895E1E0660F771F881FBB1FB0
:100AB000621773078407BA0720F0621B730B840B5D
:100AC000BA0BEE1F88F7E09508959F3F31F09150E3
:100AD00020F4879577956795B795880F911D969522
:100AE000879597F9089500240A9416161706180694
:100AF0000906089500240A94121613061406050622
:100B00000895092E0394000C11F4882352F0BB0FB2
:100B100040F4BF2B11F460FF04C06F5F7F4F8F4F15
:100B20009F4F0895AA1BBB1B51E107C0AA1FBB1F03
:100B3000A617B70710F0A61BB70B881F991F5A9569
:100B4000A9F780959095BC01CD01089597FB092EDA
:100B500007260AD077FD04D0E5DF06D000201AF47E
:100B6000709561957F4F0895F6F7909581959F4F09
:060B70000895F894FFCF88
:00000001FF
