:100000000C942A000C943F000C943F000C943F0089
:100010000C943F000C943F000C943F000C943F0064
:100020000C943F000C943F000C943F000C943F0054
:100030000C943F000C943F000C943F000C943F0044
:100040000C943F000C943F000C943F000C943F0034
:100050000C943F0011241FBECFE5D4E0DEBFCDBF1E
:1000600010E0A0E6B0E0E6E2F2E002C005900D92FA
:10007000AC36B107D9F70E9401010C9411010C9420
:100080000000DF9888230CF4DF9ADE9886FDDE9A64
:10009000DD9885FDDD9ADC9884FDDC9AD99A82E0B2
:1000A0008A95F1F700C0D99882E08A95F1F700C0EF
:1000B00008951F93182FD898D9980E944100812F36
:1000C0008295807F0E9441001F9108951F93182FF1
:1000D000D89AD9980E944100812F8295807F0E94F2
:1000E00041001F9108950F931F93DF93CF9300D08A
:1000F000CDB7DEB78C011A821982E981FA81E80F47
:10010000F91F80818823B9F0E981FA81E00FF11F9E
:1001100080810E94660089819A8101969A838983F1
:1001200085ED8A95F1F70000E981FA81E00FF11F72
:100130008081882349F70F900F90CF91DF911F9115
:100140000F910895D79AD69AD59AD49AD19AD09ADF
:100150008FEF90E7A2E081509040A040E1F700C00F
:100160000000D898D99880E30E944100AFE8B1E040
:100170001197F1F700C0000080E30E9441008FE872
:1001800091E00197F1F700C0000088E20E94410071
:1001900095ED9A95F1F7000088E20E945900A5EDCF
:1001A000AA95F1F7000081E00E9459008FE39FE1DA
:1001B0000197F1F700C0000088E00E94590095ED1A
:1001C0009A95F1F7000086E00E945900A5EDAA95E6
:1001D000F1F700008CE00E945900B5EDBA95F1F7F7
:1001E000000008958295880F880F807C860F815CBF
:1001F0000E9459008FEC97E00197F1F700C00000D2
:1002000008958FEF81BB82BB0E94A20082E061E073
:100210000E94F20080E690E00E94730080E090E08F
:060220000895F894FFCFE1
:0C0226006B68616E68207468616E68008F
:00000001FF
