:0A0000000C942A000C9400000C94EC
:10000A0000000C9400000C9400000C9400000C9466
:10001A0000000C9400000C9400000C9448000C940E
:10002A0000000C9400000C9400000C9400000C9446
:10003A0000000C9400000C9400000C9400000C9436
:10004A0000000C9400000C940000F894EE27ECBB1E
:10005A00F1E0FBBFEBBFE5BFF8E1F1BDE1BD8DE02B
:10006A00A2E0BB27ED938A95E9F780E094E0A0E649
:10007A00ED930197E9F7EFE5EDBFE4E0EEBFC0E6E7
:10008A00D1E00C945700AA93EA93EFB7EA93E6E01B
:10009A00E2BFE2B3A1E0EA27E2BBE991EFBFE9914F
:1000AA00A9911895E0E0EBBBEABBE8BBE7BBE5BB6F
:1000BA00E4BBE2BBE1E0E1BBE2E0E3BFE6E0E2BFD2
:1000CA00E0E0ECBFEFBDEEBDEDBDECBDE7BDE6BDCA
:1000DA00EBBDEABDE9BDE8BDE2BDE5BDE4BDE3BDFA
:1000EA00E5BFE4BFE1E0E9BFE0E0EAB9E0E8E8B98A
:1000FA00E0E0E0BFE6B9EDB9E6BF7894FFCFFFCF05
:00000001FF
