:0E0000000C9433000C9400000C9400000C943F
:10000E0000000C9400000C9400000C9400000C9462
:10001E0000000C9400000C9400000C9400000C9452
:10002E0000000C9400000C9400000C9400000C9442
:10003E0000000C9400000C9400000C9400000C9432
:10004E0000000C9400001027E80364000A00010071
:10005E000010000110000100F894EE27ECBBF1E057
:10006E00FBBFEBBFE5BFF8E1F1BDE1BD8DE0A2E066
:10007E00BB27ED938A95E9F780E094E0A0E6ED9337
:10008E000197E9F7EFE5EDBFE4E0EEBFC0E6D1E0A2
:10009E000C945800EBB1E03211F4E881ECB92196E2
:1000AE000895E0E0EBBBEABBE8BBE7BBE5BBE4BB16
:1000BE00E2BBE1BBE3BFE2BFECBFEFBDEEBDEDBD0A
:1000CE00ECBDE7BDE6BDEBBDEABDE9BDE8BDE2BDF9
:1000DE00E5BDE4BDE3BDE5BFE4BFE9BFEBB9E8E0D4
:1000EE00EAB9E6E8E0BDE0E0E0BDE0E1E9B9E0E86C
:1000FE00E8B9E0E0E0BFE6B9EDB9E6BF2197E6E288
:10010E00E883A881A03868F4E881EA93C3DFE4E6C7
:10011E00F0E0FA93EA930E949B00E881EF5FE88398
:10012E00F0CF2196EBCFFFCFE991F991309639F0D0
:10013E0080EA9FE00197F1F7A8953197C9F70895E6
:00000001FF
