:060000000C9436000C9484
:1000060000000C9400000C9400000C9400000C946A
:1000160000000C9400000C9400000C9400000C945A
:1000260000000C9400000C9400000C9400000C944A
:1000360000000C9400000C9400000C9400000C943A
:1000460000000C9400000C9400000C9400003F0685
:100056005B4F666D7D073F065B4F666D7D07100043
:10006600600154000000F894EE27ECBBF1E0FBBF02
:10007600EBBFE5BFF8E1F1BDE1BD8DE0A2E0BB2736
:10008600ED938A95E9F780E094E0A0E6ED93019779
:10009600E9F7E4E6F0E085919591009761F0A59186
:1000A600B59105901590BF01F00105900D9201974D
:1000B600E1F7FB01F0CFEFE5EDBFE4E0EEBFC0E610
:1000C600D1E00C94CF00A0E08499A1E0E0E00E948A
:1000D6002E010E2EA0E08599A1E0E0E00E942E01FF
:1000E6000E2AA0E08699A1E0E0E00E942E010E2AE9
:1000F600A0E08799A1E0E0E00E942E01E02911F03E
:10010600E1E00895E0E008950895909A919A929A10
:10011600939AE881E03011F493980BC0A881A1303E
:1001260011F4929806C0A881A23011F4919801C0EA
:100136009098219608951A939398929891989098EA
:10014600C2DFE03031F1BFDFE03019F110E01430EA
:1001560000F51A93DADF849905C071D0AE0FBF1F80
:10016600EC9118C0859905C06AD0EA0FFB1FE181A2
:1001760011C0869905C063D0EA0FFB1FE2810AC051
:10018600879905C05CD0EA0FFB1FE38103C01F5FA0
:10019600DECFE0E019910895E0E0EBBBEFE7EABBC4
:1001A600E0E0E8BBE7BBEFEFE5BBEFE0E4BBEFEF7A
:1001B600E2BBEFE0E1BBE0E0E3BFE2BFECBFEFBDD7
:1001C600EEBDEDBDECBDE7BDE6BDEBBDEABDE9BDEF
:1001D600E8BDE2BDE5BDE4BDE3BDE5BFE4BFE9BF03
:1001E600EAB9E0E8E8B9E0E0E0BFE6B9EDB9E6BFB4
:1001F6002697E7E0E883E0E0E983EC83ED83AC81D2
:10020600BD811497CCF497DFF0E0EC83FD83309743
:1002160059F0EC81EBBBE881E5BBE881F981F59506
:10022600E795E883F98302C0EFE0E5BBEC81FD8149
:100236003196EC83FD83E3CF2696DACFFFCFE12F0D
:10024600A0E6B1E0F0E00E9429010895EE0FFF1F3D
:10025600EE0FFF1F0895EA17E1E009F0EE27089573
:00000001FF
