:0C0000000C942A000C9400000C940000EA
:10000C000C9400000C9400000C9400000C94000064
:10001C000C9400000C9400000C9400000C94000054
:10002C000C9400000C9400000C9400000C94000044
:10003C000C9400000C9400000C9400000C94000034
:10004C000C9400000C940000F894EE27ECBBF1E04B
:10005C00FBBFEBBFE5BFF8E1F1BDE1BD8DE0A2E078
:10006C00BB27ED938A95E9F780E094E0A0E6ED9349
:10007C000197E9F7EFE5EDBFE4E0EEBFC0E6D1E0B4
:10008C000C946D000E94F800AE81BF81EAE0F0E0B4
:10009C000E94D7009F01AE81BF81EAE0F0E00E9490
:1000AC00DC00AF0100E010E00A30E0E01E075CF479
:1000BC00909A25BB4DD09098919A45BB49D0919878
:1000CC000F5F1F4FF1CF0E94FF0028960895E0E0CC
:1000DC00EBBBEABBE8BBE7BBE5BBEFEFE4BBE0E0A7
:1000EC00E2BBEFEFE1BBE0E0E3BFE2BFECBFEFBD93
:1000FC00EEBDEDBDECBDE7BDE6BDEBBDEABDE9BDBA
:10010C00E8BDE2BDE5BDE4BDE3BDE5BFE4BFE9BFCD
:10011C00EAB9E0E8E8B9E0E0E0BFE6B9EDB9E6BF7E
:10012C002297E0E0E883E983A881B981A436E0E076
:10013C00BE075CF4E881F981FA93EA93A3DFE881C6
:10014C00F9813196E883F983EFCF2296E9CFFFCF7F
:10015C00E1E0F0E0FA93EA930C94B400E991F991A0
:10016C00309639F080EA9FE00197F1F7A895319726
:10017C00C9F70895F195E195F040089500241124F4
:10018C0090E1AA0FBB1F001C111C0E1A1F0A18F4B9
:10019C000E0E1F1E01C0A1609A9599F7FD01D001AA
:1001AC00089512D0EBDF0EF4E5DF0895E894B7FF65
:1001BC0004C0A095B09511966894F7FDDBDFDEDFE7
:1001CC00FD010EF4D7DF0895E894F7FF02C0D2DFEB
:1001DC006894B7FF06C0A095B095119600F80394EB
:1001EC0000FA08955A934A933A932A931A930A93CE
:1001FC0008955D814C813B812A8119810881089584
:00000001FF
