:100000000C942A000C9434000C9434000C943400AA
:100010000C9434000C9434000C9434000C94340090
:100020000C9434000C9434000C9434000C94340080
:100030000C9434000C9434000C9434000C94340070
:100040000C9434000C9434000C9434000C94340060
:100050000C94340011241FBECFE5D4E0DEBFCDBF29
:100060000E9436000C9465000C9400008FEF8BBB4F
:1000700084BB9FEF31E022E09BBB89B38E3F51F4FC
:10008000E1EEF4E03197F1F700C0000089B38E3F54
:1000900009F435BB89B38D3F51F4E1EEF4E03197BB
:1000A000F1F700C0000089B38D3F09F425BB89B387
:1000B0008B3F11F7E1EEF4E03197F1F700C000005B
:0E00C00089B38B3FC9F615BAD7CFF894FFCF9E
:00000001FF
