:080000000C942F000C94000089
:100008000C9400000C9400000C9400000C94000068
:100018000C9400000C9400000C9400000C94000058
:100028000C9400000C9400000C9400000C94000048
:100038000C9400000C9400000C9400000C94000038
:100048000C9400000C9400000C94000080C0020086
:10005800600154000000F894EE27ECBBF1E0FBBF10
:10006800EBBFE5BFF8E1F1BDE1BD8DE0A2E0BB2744
:10007800ED938A95E9F780E094E0A0E6ED93019787
:10008800E9F7E6E5F0E085919591009761F0A59193
:10009800B59105901590BF01F00105900D9201975B
:1000A800E1F7FB01F0CFEFE5EDBFE4E0EEBFC0E61E
:1000B800D1E00C945F00E0E0EBBBEABBE8BBE7BB38
:1000C800E5BBE4BBE2BBE1BBE3BFE2BFECBFEFBD16
:1000D800EEBDEDBDECBDE7BDE6BDEBBDEABDE9BDDE
:1000E800E8BDE2BDE5BDE4BDE3BDE5BFE4BFE9BFF2
:1000F800EAB9E0E8E8B9E0E0E0BFE6B9EDB9E6BFA3
:10010800E0E1EA933FD0FFCFFFCFE881E07111F043
:10011800DC9A01C0DC98E881E07211F0DD9A01C038
:10012800DD98E881E07411F0DE9A01C0DE98E8817C
:10013800E07811F0DF9A01C0DF988BE08A95F1F73B
:10014800DA9A8BE18A95F1F7DA988BE18A95F1F7DB
:1001580049C0E881EA93D9DFE881E295E883E8813C
:10016800EA93D3DF88EC90E00197F1F73BC0E2E037
:100178003BD0ECE0EA93EDDFE1E036D0E0E04E2E54
:100188005E2E0895D49AD59AD69AD79AD29AD09AAA
:10019800D19ADA98D898D9987880E881E058E0938D
:1001A8006201E881E054E0936301E4E1F0E0FA934E
:1001B800EA930E94080120D01FD01ED0E0E2EA9303
:1001C800A4DF80E991E00197F1F7E8E2EA93C1DF63
:1001D800E4E0EA93BEDFE5E8EA93BBDFE6E0EA9312
:1001E800B8DFC5DF21960895EA93B3DFE3E0F0E0D6
:1001F800FA93EA930C940801E0E3EA9386DF80E936
:1002080091E00197F1F70895E991F991309639F065
:1002180080EA9FE00197F1F7A8953197C9F708950B
:00000001FF
