:0C0000000C942F000C9400000C940000E5
:10000C000C9400000C9400000C9400000C94000064
:10001C000C9400000C9400000C9400000C94000054
:10002C000C9400000C9400000C9400000C94000044
:10003C000C9400000C9400000C9400000C94000034
:10004C000C9400000C940000000000000000010063
:10005C008000F894EE27ECBBF1E0FBBFEBBFE5BFF3
:10006C00F8E1F1BDE1BD8DE0A2E0BB27ED938A95EF
:10007C00E9F780E094E0A0E6ED930197E9F7EFE56E
:10008C00EDBFE4E0EEBFC0E6D1E00C944D00E0E043
:10009C00EBBBEFEFEABBE0E0E8BBE7BBE5BBE4BBE7
:1000AC00E2BBE1BBE3BFE2BFECBFEFBDEEBDEDBD1C
:1000BC00ECBDE7BDE6BDEBBDEABDE9BDE8BDE2BD0B
:1000CC00E5BDE4BDE3BDE5BFE4BFE9BFEAB9E0E8E7
:1000DC00E8B9E0E0E0BFE6B9EDB9E6BF2C978AE0FD
:1000EC00A0E0B0E0E4E5F0E00E94E700EE81FF81E3
:1000FC000E94D900EC83FD83E885F9850E94E0001D
:10010C00EA83FB83E0E0EA87EB87AA85BB85189737
:10011C00DCF5AA85BB8514978CF4EE81A885EA0FD3
:10012C00EBBBE885F985F595E795E887F987EE81CE
:10013C00FF81EE0FFF1FEE83FF831AC0EC81FD8160
:10014C00A881B981EA0FFB1FAA81BB81EA0FFB1FB3
:10015C00E883F983E881EBBBEC81FD81F595E795AC
:10016C00EC83FD83EA81FB81EE0FFF1FEA83FB83A7
:10017C00E5E0F0E0FA93EA930E94CD00EA85FB8576
:10018C003196EA87FB87C1CF2C96A8CFFFCFE99198
:10019C00F991309639F080EA9FE00197F1F7A89534
:1001AC003197C9F70895EE0FFF1FEE0FFF1FEE0FEB
:1001BC00FF1F0895F595E795F595E795F595E79566
:1001CC000895AC0FBD1F05900D928A95E1F7089527
:00000001FF
