:080000000C9433000C94000085
:100008000C9400000C9400000C9400000C94000068
:100018000C9400000C9400000C9400000C94000058
:100028000C9400000C9400000C9400000C94000048
:100038000C9400000C9400000C9400000C94000038
:100048000C9400000C9400000C9400000D000700B4
:1000580008000E007E066D4F175B7B0E7F5FF894DD
:10006800EE27ECBBF1E0FBBFEBBFE5BFF8E1F1BD6C
:10007800E1BD8DE0A2E0BB27ED938A95E9F780E02A
:1000880094E0A0E6ED930197E9F7EFE5EDBFE4E032
:10009800EEBFC0E6D1E00C945100E0E0EBBBEFE727
:1000A800EABBE0E0E8BBE7BBE5BBEFE0E4BBE0E0D0
:1000B800E2BBE1BBE3BFE2BFECBFEFBDEEBDEDBD10
:1000C800ECBDE7BDE6BDEBBDEABDE9BDE8BDE2BDFF
:1000D800E5BDE4BDE3BDE5BFE4BFE9BFEAB9E0E8DB
:1000E800E8B9E0E0E0BFE6B9EDB9E6BF649782E1C0
:1000F800A2E0B0E0E4E5F0E00E94E500E0E0E8839B
:10010800E983A881B9811A9714F00C94CC00A881CE
:10011800B981139724F0A881B98117970CF011C001
:10012800EC8139D0EC81FD81F595E795EC83FD8371
:10013800EE81FF81AC81BD81EA0FFB1FEC83FD835B
:100148001BC0A881B981139764F4E88524D0E88599
:10015800F985EE0FFF1FE887F9873196E887F98759
:100168000BC0EA8118D0EA81FB81EE0FFF1FEA83FA
:10017800FB833196EA83FB83E4E1F0E0FA93EA93A8
:100188000E94D900E881F9813196E883F983B9CFD3
:100198006496ACCFFFCFE5BBE881F981DE011A9602
:1001A800AE0FBF1FEC91EBBB0895E991F991309622
:1001B80039F080EA9FE00197F1F7A8953197C9F7E0
:1001C8000895AC0FBD1F05900D928A95E1F708952B
:00000001FF
