:100000000C942A000C9400000C9400000C94000046
:100010000C9400000C9400000C946F000C940000F1
:100020000C9400000C9400000C9400000C94000050
:100030000C9400000C9400000C9400000C94000040
:100040000C9400000C9400000C9400000C94000030
:100050000C940000F894EE27ECBBF1E0FBBFEBBF83
:10006000E5BFF8E1F1BDE1BD8DE0A2E0BB27ED9376
:100070008A95E9F780E094E0A0E6ED930197E9F72F
:10008000EFE5EDBFE4E0EEBFC0E6D1E00C94D200B6
:10009000BED0DC9A02BBCCD0DC98DD9A22BBC8D0A3
:1000A000DD9819C0B4D0DA9AE02FE295E07FE5BB85
:1000B000BFD0DA98DB9AE22FE295E07FE5BBB8D0BB
:1000C000DB9809C0A4D0D89A05BBB2D0D898D99AE9
:1000D00025BBAED0D9980E944B01269608950A926E
:1000E0001A92FA926A937A938A939A93AA93BA93FA
:1000F000EA93FA93EFB7EA93A0E6B1E09FD0A0911C
:100100006001B0916101D29751F5E0E0E0936001A8
:10011000E0936101A2E6B1E091D0A0916201B091BB
:100120006301DC97E1F4E0E0E0936201E0936301B6
:10013000A4E6B1E083D0A0916401B0916501DC97A1
:1001400019F4A6E6B1E07AD0A0916601B0916701FA
:10015000589729F4E0E0E0936601E0936701E091AD
:100160006201F0916301FA93EA9392DFE0916401F6
:10017000F0916501FA93EA9395DFE0916601F091C1
:100180006701FA93EA939EDFE991EFBFF991E99154
:10019000B991A9919991899179916991F990199061
:1001A00009901895E0E0EBBBEFEFEABBE0E0E8BBBD
:1001B000E7BBE5BBEFEFE4BBE0E0E2BBEFEFE1BBA9
:1001C000E0E0E3BFE2BFECBFEFBDEAE0EEBDE0E0A0
:1001D000EDBDECBDE7BDE6BDE7E8F3E1FBBDEABD83
:1001E000E0E0E9BDE8BDE2BDE5BDE4BDE3BDE5BFDE
:1001F000E4BFE0E1E9BFE0E0EAB9E0E8E8B9E0E067
:10020000E0BFE6B9EDB9E6BF7894FFCFFFCF0E941B
:100210004601AC81BD81EAE0F0E00E9430018F012F
:10022000AC81BD81EAE0F0E00E9443019F010895A6
:10023000E1E0F0E0FA93EA930C942401ED91FD9152
:100240003196FE93EE930895E991F991309639F045
:1002500084EF91E00197F1F7A8953197C9F70895D8
:100260000024112490E1AA0FBB1F001C111C0E1AC0
:100270001F0A18F40E0E1F1E01C0A1609A9599F76F
:10028000FD01D0010895ECDFFD0108953A932A9312
:100290001A930A9308953B812A8119810881089550
:00000001FF
