:020000000C945E
:100002002A000C9400000C9400000C9400000C9444
:1000120000000C9400000C9400000C9400000C945E
:1000220000000C9400000C9400000C9400000C944E
:1000320000000C9400000C9400000C9400000C943E
:1000420000000C9400000C9400000C9400000C942E
:100052000000F894EE27ECBBF1E0FBBFEBBFE5BF7D
:10006200F8E1F1BDE1BD8DE0A2E0BB27ED938A95F9
:10007200E9F780E094E0A0E6ED930197E9F7EFE578
:10008200EDBFE4E0EEBFC0E6D1E00C944800E0E052
:10009200EBBBEFEFEABBE0E0E8BBE7BBE5BBE4BBF1
:1000A200E2BBE1BBE3BFE2BFECBFEFBDEEBDEDBD26
:1000B200ECBDE7BDE6BDEBBDEABDE9BDE8BDE2BD15
:1000C200E5BDE4BDE3BDE5BFE4BFE9BFEAB9E0E8F1
:1000D200E8B9E0E0E0BFE6B9EDB9E6BF07D0E0EF8E
:1000E200EBBB04D0EFE0EBBBF9CFFFCFEAE0F0E0EF
:1000F200FA93EA930C947D00E991F991309639F0E4
:1001020080EA9FE00197F1F7A8953197C9F7089522
:00000001FF
