:080000000C944C000C9400006C
:100008000C9400000C9400000C9400000C94000068
:100018000C9400000C9400000C9400000C94000058
:100028000C9400000C9400000C9400000C94000048
:100038000C9400000C9400000C9400000C94000038
:100048000C9400000C9400000C94000020445331E0
:100058003330372041565220563420200054696DE1
:10006800653A202532752D2532752D25327500000B
:1000780001002D4E414E00494E4600002D4E414E86
:1000880000001100600154000100710178000000B7
:10009800F894EE27ECBBF1E0FBBFEBBFE5BFF8E15E
:1000A800F1BDE1BD8DE0A2E0BB27ED938A95E9F7AC
:1000B80080E094E0A0E6ED930197E9F7EAE8F0E044
:1000C80085919591009761F0A591B591059015904E
:1000D800BF01F00105900D920197E1F7FB01F0CF08
:1000E800EFE5EDBFE4E0EEBFC0E6D1E00C947C00A4
:1000F8006097E0E0EBBBEABBE0EFE8BBE7BBE0E022
:10010800E5BBEFEFE4BBE0E0E2BBE1BBE3BFE2BF8E
:10011800ECBFEFBDEEBDEDBDECBDE7BDE6BDEBBD93
:10012800EABDE9BDE8BDE2BDE5BDE4BDE3BDE5BFAF
:10013800E4BFE9BFEAB9E0E8E8B9E0E0E0BFE6B962
:10014800EDB9E6BF97D00E949101E1E0EA93E0E1C2
:10015800EA930E94CE01A0E0B0E00E94950AE03048
:1001680069F0EBE0EA93EFE0EA93E0E0EA930E94BB
:10017800DB01A0E0B0E0E0E00E94A10AE0E0EA9341
:10018800EA939AD0E0E6F1E0FA93EA93B7D0EDB7B4
:10019800FEB7FA93EA931F93EDB7FEB7FA93EA9383
:1001A8000F93EDB7FEB7FA93EA933F930E94EB01E2
:1001B8003F910F911F91FE01FA93EA93E5E6F0E073
:1001C800FA93EA93E12F0E940207E02F0E940207A8
:1001D800E32F0E9402078CE00E9489066096E0E007
:1001E800EA93E1E0EA9368D0FE01FA93EA9386D0B5
:1001F800E8ECF0E00E940807CACFFFCFAD9A88E08C
:100208008A95F1F7AD9885E88A95F1F70895E88120
:10021800E170A1E00E94E209E03011F4C49801C045
:10022800C49AE881E270A2E00E94E209E03011F489
:10023800C59801C0C59AE881E470A4E00E94E2096B
:10024800E03011F4C69801C0C69AE881E870A8E0C9
:100258000E94E209E03011F4C79801C0C79A4CC067
:10026800E881F0E00E94CE090E940C07E8810E9414
:100278000C0742C0E0E0EA93CADFE4E1F0E00E9444
:100288000807AB98AC98E3E00E940C070E9411079E
:10029800B5DF88EC90E00197F1F7B0DFE2E00E946B
:1002A8000C07E8E2EA93DCDFECE0EA93D9DFE6E06A
:1002B800EA93D6DF16D008951A93E981E03019F44D
:1002C800EA81E05802C0EA81E0541E2FE1E0F0E044
:1002D8000E9408071A93C4DF0E94110718810C9422
:1002E8006702E1E0EA93BCDF0E9411070895AB9A28
:1002F800E881EA93B5DFAB9821960895A881B98182
:10030800EC91E03041F0EA93F2DFE881F98131962F
:10031800E883F983F3CF0C9441026DD008951A93C2
:10032800A981B0E0EAE0F0E00E940D0AE295E07FE2
:100338006E2FA981BB27EAE0F0E00E94430AE60F8E
:100348001E2F0E941407EA81EA936ED01A936CD08C
:100358005ED01881B8C01A930E941407E981EA9305
:1003680063D04FD0E1EDEA935FD0E0E0EA9387D025
:100378001E2F4DD0E12FF0E00E94CE09AAE0EA023C
:10038800602DA12FBB27E0E1F0E00E94430AE60FB1
:100398001E2F71C0E981E03021F4E7E0EA93E0E044
:1003A80003C0E7E0EA93E981EA93B9DF66C0E0E0D9
:1003B800EA93E981EA93B3DFE1E0EA93EA81EA9319
:1003C800AEDFE2E0EA93EB81EA93A9DF7CC0E2E0EA
:1003D800EA93C1DFAC81BD81EC93E1E0EA93BBDF36
:1003E800AA81BB81EC93E0E0EA93B5DFA881B981EB
:1003F800EC9326960895A09AA19A0E941A07A99AA2
:100408000FC0A19AA99A0E941A07A99805C0A19A93
:10041800A9980E941A07A99A8DE08A95F1F7A898D9
:100428008DE08A95F1F708951A93A19A10E0183093
:10043800A0F4E981E07811F0A99A01C0A998E981AE
:10044800EE0FE9838DE08A95F1F70E941A07A898C4
:100458008DE08A95F1F71F5FEACFA1980E941A07ED
:10046800E0E09999E1E01E2F8DE08A95F1F7A898D0
:100478008DE08A95F1F7E12F1881229608951A9355
:100488000A9310E0A19800E0083068F4A89A8BE17C
:100498008A95F1F7110F999911608BE18A95F1F717
:1004A800A8980F5FF1CFA19A0E941A07EA81E0305D
:1004B80011F4A99801C0A99A8DE08A95F1F7A89836
:1004C800E12F1981088123960895E991F991A9915D
:1004D800B991CD0105900D920020E1F7FC01089536
:1004E800A991B991EE27FF276D91662311F03196F6
:1004F800FBCF0895AA27BB27E991F9910590002021
:1005080011F01196FBCFFD0108952497E0E0E883F0
:10051800E983EA83EFE3EB831A930A93EB85FC857F
:10052800EF3FAFEFFA0739F40E941F07EAE7F0E060
:100538000E942407A7C0EF3FAFE7FA0739F40E94EB
:100548001F07EBE7F0E00E9424079CC0AC85AA23B4
:1005580062F4E985FA856B857C850E9415080E94FE
:1005680028070E942D07EDE2EC93A885A73010F02C
:10057800E6E0E8871885E12F1150E03039F00E9455
:1005880034070E9439070E944007F5CF0E944507AB
:100598000E94BB080E94280710E0E0E0F0E060E855
:1005A8007FE30E9440070E9445070E949E0988F049
:1005B8000E9434070E944E070E9440071F5F1732AF
:1005C80038F00E941F07EFE7F0E00E9424075AC0A6
:1005D800EACF103029F40E942D07E0E3EC9328C0FD
:1005E800E12F1150E03021F10E9434070E943907B1
:1005F8000E9455070E94830A0E94EE060E94400747
:100608000E9445070E9459090E9448080E2F0E941F
:100618002D070E945C070E9434070E94DD090E9492
:1006280081080E940B090E9462070E946707D8CFC1
:10063800E885E03019F10E942D07EEE2EC93E88599
:10064800E150E887EF5FD1F00E9462070E944E07F1
:100658000E942807E985FA856B857C850E944808F1
:100668000E2F0E942D070E945C070E9462070E94BD
:10067800DD090E9481080E946707E1CFAE81BF8132
:10068800E0E0EC93198108812D9608951A930A9356
:10069800AA81BB8112960E946F0A309729F1AA811C
:1006A800BB8114960E946F0A8F01309761F0023067
:1006B800E0E01E07C0F0F80131978F01AA81BB81E5
:1006C8001496ED93FC93AA81BB8112960E946C0745
:1006D8003197AC81A083AA81BB810E946F0AFF2356
:1006E80012F00E946C0706C0AA81BB81EFEFFFEFF2
:1006F800ED93FC9319810881259608952497E0E0ED
:10070800E883E983E0E8EA83EFE3EB830E94B80A31
:10071800EE85FF85EF3FAFEFFA0749F4E885F985E5
:10072800FA93EA93E4E8F0E00E942407CCC0EF3F94
:10073800AFE7FA0749F4E885F985FA93EA93E5E81B
:10074800F0E00E942407BFC0AB85A73010F0E6E0B8
:10075800EB871B85E12F1150E03029F00E947207CA
:100768000E947707F7CFEC85FD856E857F850E940F
:10077800B20A31F430E00E9472070E94770738C04D
:100788003B850E947C0709F010F40C94DB030E945F
:1007980072070E9477070E947C0740F00E94870733
:1007A8000E9439070E948C073F5FF5CF0FC00E9457
:1007B8007C0740F40E9487070E944E070E948C071E
:1007C8003150F5CF0E9472070E947707EC85FD85AE
:1007D8006E857F850E9455070E948C070E947C07C2
:1007E80038F00E9487070E9439070E948C073F5FF4
:1007F80010E0EB85E117D8F1AC81BD818E819F8136
:100808000E9439070E9455070E94830A0E94EE063B
:100818000E947707EC81FD816E817F810E948707A6
:100828000E9459090E9448080E2F0E949107E02F44
:10083800E05DEC93E02FFF27662777270E94810869
:10084800AC81BD818E819F810E940B090E94870720
:100858000E94880A0E94B4080E948C07E12F1F5F3B
:10086800E03039F60E949107EEE2EC93C2CF0E9485
:1008780098073197AA85A08330302CF43195A88544
:10088800B985EDE203C0A885B985EBE2EC930E9437
:1008980098070E9498073197BF01A32FEAE00E94AA
:1008A800F509E05DDB01EC930E9498073197BF01E1
:1008B800A32FEAE00E94370AE05DDB01EC93A885EC
:1008C800B985E0E0EC930E94BF0A60960895EF971F
:1008D80061970E94B60A10E0FE01E85AFF4F0190A6
:1008E800F081E02DE887F987FE01EA5AFF4F019071
:1008F800F081E02DEE83FF83AE81BF81E0E0F0E080
:10090800ED93FC93DE01A45ABF4F0E946C07319708
:10091800E4912E2FE03011F40C948006E12FE030A2
:1009280039F4253211F411E002C00E949E07E3C198
:10093800E130C1F4253219F40E949E07DBC112E0B0
:10094800E0E0ED8B00E02D3211F401E0D4C12B3250
:1009580019F4EBE2ED8BCFC1203219F4E0E2ED8B14
:10096800CAC102C0E23039F450E013E0203311F478
:100978000068C1C102C0E33091F4203310F02A337B
:1009880008F007C0AAE05A9F502DE22FE0535E0FEF
:10099800B2C140E02E3211F414E0ADC10FC0E43012
:1009A80099F4203310F02A3308F008C00062AAE056
:1009B8004A9F402DE22FE0534E0F9DC12C3619F46B
:1009C800026015E098C104C0E53011F00C947F0670
:1009D800E22FE33659F40E94A7070E94AE070E944F
:1009E800A707A481AA930E94B50784C1E53411F032
:1009F800E53609F404C0E63611F00C944D05FE0105
:100A08007696EE87FF870E94BD070E94730A0E94B0
:100A1800C4070E94C907AD85AA2322F0AD89AB326D
:100A280049F017C00E94CB070E9415080E94C4070E
:100A3800EDE2ED8B07FF05C0ED89EA930E94B5074B
:100A480008C0EE85FF853196EE87FF873197AD891F
:100A5800A08305FF46E0263661F40E94CB070E947A
:100A6800830A4A93EB89FC89FA93EA930E948902E4
:100A78000BC00E94CB070E94830A4A932A93EC89F1
:100A8800FD89FA93EA933ADEFE0176960E94D00732
:100A98001EC0E33739F40E94C9070E94D8070E9494
:100AA800D0070EC0E037C1F40E94C9070E94D807DA
:100AB800EE87FF87FA93EA930E947E021E2F086052
:100AC8000F77403011F0411708F001C0142F40E0B3
:100AD800E0E0EC8B30E06EC0E43611F0E93611F45A
:100AE800046002C0E537A1F4EAE0EC8B01FF08C01E
:100AF800E0E0FAEC6AE97BE30E94DD071AE023C034
:100B0800E0E1F7E260E070E00E94DD0715E01BC05D
:100B1800E83511F4086004C0E83711F00C947E063B
:100B2800E0E1EC8B01FF08C0E0E0F0E060E070E19C
:100B38000E94DD0718E007C0E0E0F0E160E070E047
:100B48000E94DD0714E0403011F00F7701C041E04A
:100B580001FF08C00E94C9070E94BD0714960E94A1
:100B6800730A0FC002FF07C00E94C9070E94D80776
:100B78000E94DD0906C00E94C9070E94D80766279F
:100B88007727EA87FB876C877D8702FF12C0AD85D0
:100B9800AA2342F40E94CB070E94C6090E94C407F8
:100BA800EDE2ED8BED89E03019F01F5F4F5F01C07A
:100BB8000B7F342F00FD14C0151710F4351708F0FB
:100BC8000FC007FF08C002FF04C00B7F2D8911501A
:100BD80001C020E301C020E20E949E075150ECCFE3
:100BE800141790F4006102FF06C00E94E20709F0A2
:100BF800515011504150E0E3EA930E94B50750303C
:100C080009F051504150ECCF312FEC89E030B9F464
:100C18003030A1F003FF06C0EE85FF852591EE87F1
:100C2800FF8705C0AE85BF852D91AE87BF870E941F
:100C38009E07503009F051503150EACF51C00E9400
:100C4800F6070E94120A2E2F2A3030F003FF02C046
:100C5800295C01C0295A01C0205D04FD21C021334F
:100C680060F4A889B9898A899B89A130E0E0BE0728
:100C7800E0E08E07E0E09E0709F40BC0431740F45C
:100C8800531710F000FF01C010C020E207FF08C092
:100C980020E3006102FF04C00E94E20709F05150FE
:100CA8000E949E07503009F0515031500E94F607BB
:100CB8000E94510A0E94C407EC89A889B9898A89C7
:100CC8009B89FF27662777270E94120A0E94DD0763
:100CD800E889F9896A897B890E94B20A09F0AFCF4D
:100CE80000FF08C0503031F05150E0E2EA930E9412
:100CF800B507F8CF10E006CEAE81BF810E946F0A1B
:100D08000E94BD0AEF966F960895FF92F82E2697D7
:100D18000E94B80A0E94FF07309719F4EFEFFFEF1F
:100D280025C0DE0116960E94BE098D010E94FF07AC
:100D3800EE83FF83E0E0E887E987DE011A960E94E8
:100D4800BE090E946F0AFA93EA931A930A93EAE497
:100D5800F3E0FA93EA93FE013A96FA93EA93B7DD41
:100D68009F01AE81BF81E0E0EC93F9010E94BF0AC8
:100D78002A96FF9008957B816A81F981E88177FB43
:100D8800770F67FD7160972F9E5781F078F0983143
:100D980090F4AA27BB27882708948795B795A79525
:100DA8009A95D1F7EA23FB23682305C0E8947727AF
:100DB800EE27FF2766276F77769508F4606877F93E
:100DC800A991B99189919991EA17FB076807790761
:100DD80097FB089517D10E94830A0E94BF060E94BC
:100DE8007E0A11F40FD108C0EEF70CD1A0E0B0E0F4
:100DF80080E89FE30E94B40824960895FF27662799
:100E080077270E94830A0895FA93EA930C940908B5
:100E1800EA930E940B010C940201E5E0F0E0F4CFA4
:100E28000E940502E0EDEA930C941802A89A8DE05E
:100E38008A95F1F70895EE81FF81FA93EA93089570
:100E4800FA93EA930C946902E987FA876B877C879F
:100E58000895AE81BF811196AE83BF83119708951F
:100E6800AA81BB818C819D810895EDECFCEC6CEC32
:100E78007DE30E940B090895EA83FB836C837D83DD
:100E88000895EA81FB816C817D81A985BA858B856E
:100E98009C850895E0E0F0E060E271E40E940B09AF
:100EA8000895A0E0B0E080E09FE30E94BB080895A9
:100EB800E02FE05DEC93E02FF0E00895A985BA8576
:100EC8008B859C8508950E94880A0E94B408BCCF2F
:100ED800ED91FD913196FE93EE930895AC81BD811D
:100EE8008E819F81D7CFEC83FD836E837F830895A6
:100EF800EC81FD816E817F81AC85BD858E859F8566
:100F08000E949E090895AC85BD858E859F850895AC
:100F1800EC87FD876E877F870895A885B985119628
:100F2800A887B98711970895E885F9853196E887E4
:100F3800F98708952A93EF81F885FA93EA93EB8568
:100F4800FC8509950895FE01E65AFF4F0190F0814E
:100F5800E02D08953497DE01A65ABF4FED93FC9318
:100F68000895EF81F885FA93EA93EB85FC85099556
:100F78000895DE01A65ABF4F0D90BC91A02D08958B
:100F8800EA87FB876C877D870895DDDFE3CFEA85F5
:100F9800FB856C857D850895EE87FF87FA93EA9334
:100FA8000E9474021E2F0895E4DF14960E946F0AAF
:100FB8000895E88BF98B6A8B7B8B08950B7FED89FD
:100FC800EA93FE01E95AFF4F0190F081E02DFA9370
:100FD800EA93FE01E55AFF4F0190F081E02D099553
:100FE80050300895E889F9896A897B89AA85BB8583
:100FF8008C859D850895DE011C960E94BE090E947D
:101008006F0A08950E94790A0895E991F991309636
:1010180039F080ED97E00197F1F7A8953197C9F776
:10102800089530976040704009F07058089555232E
:1010380042F4503811F4E0FF04C03196691F791F5B
:101048006BF050E8572711F45F93CFC05F3F31F042
:10105800660F000C57956795752F08955F930020CC
:101068000AF0CFC0C8C050E8192E1522880F991F62
:101078009527550F879550E8072E0522660F771F8D
:101088007527550F67950895689401C0E8945F9394
:10109800F2DF703818F07F3F08F4A7C056E1571BFD
:1010A800AAF4519558300EF4593030F0EFEFFFEFB5
:1010B8006FEF7FE777F91AC077275523B9F0EE0F5E
:1010C800FF1F661F771F5A95D1F710C07727583032
:1010D80028F0EF2FF62F672F5850F9CF552331F00E
:1010E80076956795F795E7955A95D1F700200AF414
:1010F80049D15F910895689401C0E89430976040A1
:101108007040B1F0002426F0772312F400943AD10D
:10111800172E7EE1112032F07A95EE0FFF1F661F21
:10112800111CF9CFEF2FF62F612D5F938ADF5F91A6
:1011380008954F93AF01FD01DA01AB01BC01CA016B
:10114800402D012C142E4F910895EA0FFB1F681FA4
:101158000895E095F0956095EF5FFF4F6F4F089504
:101168005F9381DF903871F150E8152604C05F93D2
:101178007ADF903839F1703821F1572F591B2BF14C
:1011880012F4D7DFFACF583118F0AA27BB278827DF
:10119800583028F0AB2FB82F88275850F9CF55234F
:1011A80029F08695B795A7955A95D9F7502D5125C9
:1011B80072F0CBDF38F46795F795E795739513F4DC
:1011C80020C0B7DF3EDF5F910895D8F7FBCFEA1B59
:1011D800FB0B680B51F010F40094BBDF662392F30D
:1011E800EE0FFF1F661F7A95CBF7EE27FF276627BE
:1011F80077275F910895EFEFFFEF6FE77FEF5F913C
:101208000895EFEFFFEF6FE77FE75F9108955F9332
:101218002ADF703851F3903841F301240894791F7C
:1012280023F41CF300203AF3ECCF0F921F932F9373
:101238003F934F93112722279927689FA0018F9FDB
:10124800302D410D591F6B9F300D411D591F8E9F29
:1012580027D0BF9F25D06A9F23D0BE9F1DD0AF9FA8
:101268001BD0AE9F110D291F391F491F591FE32F8E
:10127800F42F652F522F4F913F912F911F910F906F
:1012880066232AF0550FEE1FFF1F661F02C07395D5
:101298004BF2CDDE5F910895100D211D391F02C05C
:1012A800200D311D491F591F08955F93DCDE7038EA
:1012B80021F411200AF49FCFA4CF903809F495CFD8
:1012C80001240894970B1BF4D4F30020F3CF792F53
:1012D8001F932F933F934F931124112722273327CE
:1012E8004427552790E2AE17BF078607410730F01D
:1012F800AE1BBF0B860B410B089401C08894551F89
:10130800221F331F111CAA1FBB1F881F441F9A9539
:1013180051F7F901612D4F913F912F911F9166234C
:1013280032F0550FEE1FFF1F661F7A9543F27FDEDE
:101338005F91089599239AF0772342F0971748F020
:1013480029F4AE17BF07860720F031F098948894E7
:101358000895989408940895189488940895772384
:10136800C2F7971798F3A9F7EA17FB07680788F3F6
:1013780099F3ECCF0024AF0DB01D0895F195E195D8
:10138800F0400895F09560957095E195FF4F6F4F87
:101398007F4F0895F595E795F595E795F595E795C8
:1013A800F595E7950895FE2FFF0FFF0B6F2F7F2F01
:1013B80008956F2F660F660B762F0895EA17E1E000
:1013C80009F0EE270895002498E0AA0F001C0E1AD1
:1013D80010F40E0E01C0A1609A95B9F7EA2FA02D5E
:1013E80008955FD0F0DF0EF4E195089500241124EC
:1013F80090E1AA0FBB1F001C111C0E1A1F0A18F43B
:101408000E0E1F1E01C0A1609A9599F7FD01D0012B
:10141800089553D0EBDF0EF4B1DF08953F934F9357
:101428005F93002411244427552730E2AA0FBB1FDD
:10143800881F991F001C111C441F551F0E1A1F0AD4
:10144800460B570B28F40E0E1F1E461F571F01C0D0
:10145800A1603A9559F7FD01BC01D001CA015F911D
:101468004F913F910895E894A7FF02C0A195689411
:10147800E7FDE195A8DFEA2F0EF4E1950895E894D9
:10148800B7FF04C0A095B09511966894F7FD76DF74
:10149800ADDFFD010EF472DF0895C0DFFD01BC0170
:1014A8000895E894E7FF02C0E1956894A7FF04C097
:1014B800A19500F8039400FA0895E894F7FF02C094
:1014C8005DDF6894B7FF06C0A095B095119600F847
:1014D800039400FA0895ED91FC9111970895ED9108
:1014E800FD916D917C9113970895E881F9816A8146
:1014F8007B810895E883F9836A837B8308957A93CF
:101508006A93FA93EA930895182E862F612D192E5F
:10151800972F712D1B2EBF2FF12D1A2EAE2FE12DD7
:101528000895E199FECFFF93FFB7F894AEBBBFBB18
:10153800E09AEDB3FFBFFF910895E19B02C0A89523
:10154800FCCF9FB7F894AEBBBFBBE09A8DB3E8174A
:1015580019F0EDBBE29AE19A9FBF08953097604079
:10156800704008955A934A933A932A931A930A9388
:1015780008955D814C813B812A81198108810895F4
:00000001FF
