:0A0000000C9439000C9400000C94DD
:10000A0000000C9400000C9400000C9400000C9466
:10001A0000000C9400000C9400000C9400000C9456
:10002A0000000C9400000C9400000C9400000C9446
:10003A0000000C9400000C9400000C9400000C9436
:10004A0000000C9466000C94000000000000000000
:10005A00C0F9A4B0999282F8809006000400540076
:10006A000A0060015A000000F894EE27ECBBF1E0A8
:10007A00FBBFEBBFE5BF8DE0A2E0BB27ED938A95FE
:10008A00E9F780E094E0A0E6ED930197E9F7E4E66A
:10009A00F0E085919591009761F0A591B591059051
:1000AA001590BF01F00105900D920197E1F7FB0150
:1000BA00F0CFEFE5EDBFE4E0EEBFC0E6D1E00C948F
:1000CA008700EA93FA93EFB7EA93F40131964F0166
:1000DA00E8EEF3E0E815F90581F48824992473948D
:1000EA00ECE3E71551F477244394E41531F44424FE
:1000FA005394E8E1E51509F45524E991EFBFF99124
:10010A00E9911895EFEFE4BBE1BBEAE0E3BFE2E077
:10011A00E9BFE0E0E2BFEAEFECBF7894A52D1ED07C
:10012A00909A26D09098A52D27D0919A21D091986F
:10013A00A42D14D0929A1CD09298A42D1DD0939AD3
:10014A0017D09398A72D0AD0949A12D09498A72DD5
:10015A0013D0959A0DD09598E1CFFFCFB0E0EAE0A1
:10016A00F0E00E94EC00E05AFE4FE081E5BB089502
:10017A00A1E0B0E00C94CB00BB27EAE0F0E00E94DB
:10018A00F100E05AFE4FE081E5BB0895109639F080
:10019A0080ED97E00197F1F7A8951197C9F70895AF
:1001AA00F195E195F04008950024112490E1AA0FF9
:1001BA00BB1F001C111C0E1A1F0A18F40E0E1F1E5C
:1001CA0001C0A1609A9599F7FD01D001089512D056
:1001DA00EBDF0EF4E5DF0895E894B7FF04C0A095BD
:1001EA00B09511966894F7FDDBDFDEDFFD010EF4B2
:1001FA00D7DF0895E894F7FF02C0D2DF6894B7FF0B
:10020A0006C0A095B095119600F8039400FA0895D7
:00000001FF
