:100000000C942A000C9447000C9447000C94470071
:100010000C9447000C9447000C9447000C94470044
:100020000C9447000C9469010C9447000C94470011
:100030000C9447000C9447000C9447000C94470024
:100040000C9447000C9447000C9447000C94470014
:100050000C94470011241FBECFE5D4E0DEBFCDBF16
:1000600010E0A0E6B0E0EEE7F6E002C005900D92E9
:10007000A038B107D9F710E0A0E8B0E001C01D92A8
:10008000A938B107E1F70E9404010C943D030C94D8
:10009000000011B882E380B984E086BF089584EA45
:1000A00086BF06B607FEFDCF089584E986BF81E2CC
:1000B0008A95F1F70000089583B984E886BF06B6F3
:1000C00007FEFDCF08958295880F880F807C846895
:1000D00086BF06B607FEFDCF83B108956AE00E9491
:1000E0001D038295807F890F0895982F92959F70A8
:1000F000990F292F220F220F920F8F70890F0895C9
:10010000809182008F770E947500809378008091A3
:1001100083000E94750080937900809184008F7124
:100120000E94750080937A00809187000E9475007C
:1001300080937D00809186000E94750080937C00F2
:10014000809188000E94750080937E000E94BB020F
:1001500080E690E066E070E00E94F90281E068E0ED
:100160000E94C90280917A000E94EB0281E06AE05D
:100170000E94C9028AE30E94B50281E06BE00E94FE
:10018000C902809179000E94EB0281E06DE00E943B
:10019000C9028AE30E94B50281E06EE00E94C902B2
:1001A000809178000E94EB0281E060E10E94C90228
:1001B0008091840085FD04C081E40E94B50203C0E3
:1001C00080E50E94B50282E061E00E94C90287E6F4
:1001D00090E066E070E00E94F90282E068E00E9430
:1001E000C90280917C000E94EB028DE20E94B50260
:1001F00080917D000E94EB028DE20E94B502809109
:100200007E000E94EB0208950E949A028FEF99E609
:10021000A8E181509040A040E1F700C0000085E0D7
:1002200083BF81E089BF7894809178000E946E003E
:1002300080938200809179000E946E0080938300F9
:1002400080917A000E946E008093840080917B00F0
:100250000E946E008093850080917C000E946E0059
:100260008093860080917D000E946E0080938700BD
:1002700080917E000E946E00809388000E94D901C8
:10028000209182003091830040918400509185003C
:100290006091860070918700809188000E94E9013A
:1002A000AFE9BFE01197F1F700C000002091820094
:1002B00030918300409184005091850060918600C8
:1002C00070918700809188000E9422020E94800025
:1002D000FFCF1F920F920FB60F9211242F933F93CF
:1002E0004F935F936F937F938F939F93AF93BF933E
:1002F000EF93FF93809180009091810001969093FD
:1003000081008093800080918000909181008A30EC
:100310009105F0F12091820030918300409184009A
:1003200050918500609186007091870080918800CF
:100330000E9422020E94C202809182008F770E9456
:1003400075000E94EB02809182008F770E947500F9
:10035000909178008917C1F08093780081E06EE079
:100360000E94C9028EE690E00E94B50281E06EE034
:100370000E94C902809178000E94EB02809178006F
:10038000882311F40E948000109281001092800056
:10039000FF91EF91BF91AF919F918F917F916F915D
:1003A0005F914F913F912F910F900FBE0F901F9033
:1003B00018950E9449000E944F0080ED0E945C0049
:1003C00087E00E945C0080E00E945C000E94550073
:1003D0000895DF93CF93CDB7DEB727970FB6F89484
:1003E000DEBF0FBECDBF29833A834B835C836D8311
:1003F0007E838F830E944F0080ED0E945C0080E02E
:100400000E945C0089810E945C008A810E945C00DD
:100410008B810E945C008C810E945C008D810E9417
:100420005C008E810E945C008F810E945C000E94B3
:10043000550027960FB6F894DEBF0FBECDBFCF9103
:10044000DF910895DF93CF93CDB7DEB727970FB62F
:10045000F894DEBF0FBECDBF29833A834B835C8304
:100460006D837E838F830E944F0080ED0E945C002D
:1004700080E00E945C000E9455000E944F0081EDC8
:100480000E945C0081E00E94630081E00E946300A2
:1004900081E00E94630081E00E94630081E00E948D
:1004A000630081E00E94630080E00E9463000E947C
:1004B000550027960FB6F894DEBF0FBECDBFCF9183
:1004C000DF910895929A8FE081BB80B39298929ABF
:1004D00090B3929892959F70807F892B089592B3E4
:1004E0009F70282F207F292B22BB929A9298829569
:1004F000807F982B92BB929A929808950F931F93A6
:10050000DF93CF930F92CDB7DEB78E010F5F1F4FF2
:100510009098919A0E9462028983F80180818823D1
:10052000BCF391988FEF81BB0F90CF91DF911F911A
:100530000F9108958FEF81BB81BB9098919892980D
:10054000929A959A92980E947E0288E20E946F0287
:100550000E947E028CE00E946F020E947E0286E072
:100560000E946F020E947E020895909A0E946F027C
:100570000E947E020895909883E00E946F020E947C
:100580007E020895909881E00E946F020E947E0290
:10059000089590988295880F880F807C860F815CE3
:1005A0000E946F020E947E020895BC01009771F0C4
:1005B00020E030E0EAE0F0E0CB01BF010E94290337
:1005C0002F5F3F4F61157105B9F702C021E030E0A0
:1005D000822F932F08951F936AE00E941D03192F05
:1005E000805D0E94B502812F805D0E94B5021F913F
:1005F0000895EF92FF920F931F93CF93DF937B01A8
:100600006115710599F0082F192FC0E0D0E0F801AD
:1006100081918F01882319F00E94B50203C080E008
:100620000E94B5022196CE15DF0588F3DF91CF91A8
:100630001F910F91FF90EF900895991B79E004C0EE
:10064000991F961708F0961B881F7A95C9F7809511
:100650000895AA1BBB1B51E107C0AA1FBB1FA61709
:10066000B70710F0A61BB70B881F991F5A95A9F75B
:0E06700080959095BC01CD010895F894FFCFC0
:10067E0054696D653A2000446174653A200020206B
:10068E000037170302170510370C04020C05100073
:00000001FF
