:020000000C945E
:1000020036000C9400000C9400000C9400000C9438
:1000120000000C9400000C9400000C9400000C945E
:1000220000000C9400000C9400000C9400000C944E
:1000320000000C9400000C9400000C9400000C943E
:1000420000000C9400000C9400000C9400000C942E
:1000520000003F065B4F666D7D077D077F6F3F06A1
:100062005B4F1000600154000000F894EE27ECBBD7
:10007200F1E0FBBFEBBFE5BFF8E1F1BDE1BD8DE013
:10008200A2E0BB27ED938A95E9F780E094E0A0E631
:10009200ED930197E9F7E4E6F0E0859195910097F9
:1000A20061F0A591B59105901590BF01F001059001
:1000B2000D920197E1F7FB01F0CFEFE5EDBFE4E030
:1000C200EEBFC0E6D1E00C94C1002897EEEFE883C2
:1000D200E0E0E983EDEFEA83E0E0EB83EBEFEC8332
:1000E200E0E0ED83E7EFEE83E0E0EF831A930A931B
:1000F200EFEFE2BB00E010E00430E0E01E0714F096
:100102000C94BB00F801DE011296EE0FFF1FAE0F3A
:10011200BF1FEC91E2BB849909C065D0849906C0E7
:1001220068D0AE0FBF1FEC91F0E026C0859909C0E0
:100132005AD0859906C05DD0EA0FFB1FE181F0E03D
:100142001BC0869909C04FD0869906C052D0EA0FCB
:10015200FB1FE281F0E010C0879909C044D0879963
:1001620006C047D0EA0FFB1FE381F0E005C00F5F36
:100172001F4FC2CFE0E0F0E0198108812A9608956E
:10018200E0E0EBBBEFEFEABBE0E0E8BBE7BBE5BBDF
:10019200E4BBEFEFE2BBEFE0E1BBE0E0E3BFE2BFD5
:1001A200ECBFEFBDEEBDEDBDECBDE7BDE6BDEBBD09
:1001B200EABDE9BDE8BDE2BDE5BDE4BDE3BDE5BF25
:1001C200E4BFE9BFEAB9E0E8E8B9E0E0E0BFE6B9D8
:1001D200EDB9E6BF229779DFE883F983E881EBBBCB
:1001E2002296F8CFFFCFE5E0F0E0FA93EA930C9481
:1001F2000001F801A0E6B1E00E940C010895E99126
:10020200F991309639F080EA9FE00197F1F7A895CD
:100212003197C9F70895EE0FFF1FEE0FFF1F0895E4
:00000001FF
